:100000000C9476010C949E010C949E010C949E011C
:100010000C949E010C949E010C949E010C949E01E4
:100020000C949E010C949E010C94B40C0C94800BC7
:100030000C949E010C949E010C949E010C949E01C4
:100040000C949E010C949E010C949E010C949E01B4
:100050000C949E010C949E010C949E010C946206DB
:100060000C949E010C949E010C949E010C949E0194
:100070000C949E010C949E010C949E010C949E0184
:100080000C949E010C949E010C949E010C949E0174
:100090000C949E010C949E010C949E010C949E0164
:1000A0000C949E010C949E010C949E0165076807B8
:1000B00057075B0761078907890789076C0770077E
:1000C00074077A077E07890784071F082408290810
:1000D00033083D08870887088708470851085B08E8
:1000E0006508720887087A080000000200090F00FE
:1000F00000030401000C00000000000000000000EC
:1001000000000000000004080201104080401020A0
:1001100040804080080204018040201002011080CD
:1001200010204040040404040403040502020202F7
:100130000403020202020606060606060404020280
:10014000020400000000250028002B002E003100D2
:1001500000000000240027002A002D003000080BBA
:100160000002020201000904000001020200000571
:1001700024001001052401010104240206052406BF
:1001800000010705810310004009040100020A0074
:10019000000007050202400000070583024000003E
:1001A00000C18081C11201000202000040412336DB
:1001B0008000010102000112010002000000404124
:1001C00023368000010102000141726475696E6F7F
:1001D000204C4C430041726475696E6F204C656F12
:1001E0006E6172646F0004030904000000000000E7
:1001F00000002A2B28000000000000000000000082
:10020000000000000000000000002C9EB4A0A1A28D
:10021000A434A6A7A5AE362D3738271E1F202122CD
:1002200023242526B333B62EB7B89F8485868788C6
:10023000898A8B8C8D8E8F909192939495969798B6
:10024000999A9B9C9D2F3130A3AD35040506070874
:10025000090A0B0C0D0E0F10111213141516171896
:10026000191A1B1C1DAFB1B0B5000904020001032F
:100270000000000921010100012265000705840337
:1002800040000105010902A1010901A10085010544
:1002900009190129031500250195037501810295AE
:1002A00001750581030501093009310938158125DA
:1002B0007F750895038106C0C005010906A1018567
:1002C00002050719E029E715002501750195088148
:1002D00002950175088103950675081500256505C9
:1002E00007190029658100C05309A60E11241FBEFD
:1002F000CFEFDAE0DEBFCDBF11E0A0E0B1E0E6E78E
:10030000FDE102C005900D92A233B107D9F722E0BA
:10031000A2E3B1E001C01D92A93BB207E1F712E0F0
:10032000CCEED2E004C02297FE010E94B50EC83E7A
:10033000D107C9F70E9471090C94B90E0C94000002
:100340009091010180EE890F813A28F0809100019F
:1003500081958093000160910001690F6093010114
:1003600070E08DE00E94F90764E170E080E090E0C9
:100370000C94CF061F93CF93DF93182FEB0161E00E
:10038000812F0E94C3076EE170E080E090E00E9440
:10039000CF0660E0812F0E94C3076EE170E080E02D
:1003A00090E00E94CF06219750F7DF91CF911F91E7
:1003B000089540E05BE460E070E083E592E00E9435
:1003C0004D0961E087E00E948A0762E070E087E003
:1003D00090E00E94BA0161E088E00E948A0762E032
:1003E00070E088E090E00E94BA0161E08DE00E9438
:1003F0008A0762E070E08DE090E00C94BA01682F0B
:1004000087E00C94C30783E58CBD8DB58EB5089548
:100410000DB407FEFDCF08958EBD0E9408028EB573
:100420000895CF93DF9300D01F92CDB7DEB72B8313
:100430004A8369830E940C0269816EBD0E94080292
:100440008EB54A814EBD0E9408028EB52B812EBD0D
:100450000E9408028EB50F900F900F90DF91CF9100
:1004600008958091440180933201809145018093E9
:10047000330180914601809334018091470180933C
:100480003501809148018093360180914901809324
:10049000370180914A018093380180914B0180930C
:1004A000390180914C0190E090933B0180933A0197
:1004B00080914E0190E0982F882720914F01820F64
:1004C000911D90933D0180933C018091500190E0FB
:1004D000982F882720915101820F911D90933F0101
:1004E00080933E018091520190E0982F88272091BF
:1004F0005301820F911D909341018093400180919F
:10050000560190E0982F882720915701820F911D66
:10051000909343018093420108950E94030261E099
:100520008AE00E948A0761E08AE00E94C30761E0D6
:100530008FE00E948A0760E08FE00E94C30762E3B9
:1005400070E080E090E00E94CF0660E08AE00E94C8
:10055000C30762E370E080E090E00E94CF0660E0B5
:100560008EE00E948A0761E080E10E948A0720E015
:1005700040E063E58CEA0E94110281E090E09093F4
:10058000470280934602089560E08EE00E948A0749
:1005900060E080E10E948A0760E08FE00E948A07A5
:1005A00060E08AE00E948A07109247021092460299
:1005B0000895962F672F242F880F880F880F492FB3
:1005C000805C0C941102CF93DF9300D0CDB7DEB7DF
:1005D000482F692F80E090E049836A830E94FF01E1
:1005E00020E049816A818CE40E9411026EE170E092
:1005F00080E090E00E94CF0681E090E00F900F90A5
:10060000DF91CF910C94FF0120913E0130913F0189
:1006100080914402909145022032310511F4807F8F
:1006200008952034310511F4807E08952038310575
:1006300011F4807C08952115314009F480780895E3
:10064000EF92FF920F931F93CF93DF937C018091E2
:100650004402909145020E9404038C01C0E0D0E066
:10066000CE15DF05ACF580914402909145020E94C1
:1006700004030817190751F0C8010E94E302809192
:100680004402909145020E9404038C01FE01EC5B40
:10069000FE4F6091440270914502408180E00E94CB
:1006A000D9022296FE01ED5BFE4F609144027091EB
:1006B0004502408181E00E94D9022091440230919C
:1006C00045022F5F3F4F3093450220934402C8CF2D
:1006D000C8010E94E30280E1DF91CF911F910F9149
:1006E000FF90EF900895462F880F880F880F20E025
:1006F000672F805E0C9411020F931F93CF93DF93AB
:100700008C01C0E0D0E0C017D10724F5609144020D
:100710007091450280E00E947303682F83E592E0A8
:100720000E94680D609144027091450281E00E9430
:100730007303682F83E592E00E94680D20914402C4
:10074000309145022F5F3F4F309345022093440282
:100750002296D9CF80E1DF91CF911F910F9108951B
:10076000EF92FF920F931F93CF93DF937C01009141
:10077000440210914502000F111FE801CE01801BB9
:10078000910B8E159F056CF42FEF4C2F6D2F80EA87
:100790000E941102682F83E592E00E94680D219665
:1007A000EDCF80E1DF91CF911F910F91FF90EF90FE
:1007B000089583E592E00E94BA08892BD1F383E57E
:1007C00092E00E94CA0808950F931F93CF93DF937E
:1007D0008C01C4E4D1E0CE0184549140801791078C
:1007E00024F40E94D9038993F6CFDF91CF911F9112
:1007F0000F910895CF92DF92EF92FF920F931F9384
:10080000CF93DF936C017B01CB010E94E40380E076
:1008100090E00E94FF0104E411E0E601C801845465
:1008200091408E159F0584F4F80121918F014C2F82
:100830006D2F80EC0E9411026DE270E080E090E08C
:100840000E94CF062196EACF81E090E00E94FF014E
:1008500080E1DF91CF911F910F91FF90EF90DF909A
:10086000CF9008950F931F93CF93DF93EC010091E6
:1008700044021091450280914001909141018C17F2
:100880009D071CF0000F111F0BC080914802909132
:1008900049020196909349028093480281E111C078
:1008A000C132D1054CF060E270E0C8010E94FA0349
:1008B000005E1F4FA097F4CFBE01C8010E94FA034B
:1008C00080E1DF91CF911F910F9108950E94D9038C
:1008D000803239F464E183E592E00E94680D60E1C2
:1008E0000AC0809148029091490201969093490272
:1008F0008093480265E183E592E00C94680DCF9304
:10090000C82F0E94D903803261F464E183E592E04C
:100910000E94680D6C2F83E592E00E94680D60E1F3
:100920000AC0809148029091490201969093490231
:100930008093480265E183E592E0CF910C94680DC5
:10094000813859F020F4803861F482E00BC082389D
:1009500031F0833931F483E505C081E003C082E1E1
:1009600001C080E00C947F0484E090E00E94E403E6
:1009700020914701409146016091450180914401D9
:100980000E9411020C947F04CF93DF93EC010E942C
:10099000E4030E94D903803251F464E183E592E0DC
:1009A0000E94680DCE010E942003682F0AC080912A
:1009B000480290914902019690934902809348021F
:1009C00065E183E592E0DF91CF910C94680DCF93C0
:1009D000DF930E94D903C82FD0E0DC2FCC270E94E0
:1009E000D903C80FD11D0E94D903863429F4CE0142
:1009F000DF91CF910C94C4048534D1F4CE010E94D0
:100A00003204C82F0E94D903803239F464E183E5AF
:100A100092E00E94680D6C2F0CC08091480290916A
:100A200049020196909349028093480265E101C012
:100A300061E183E592E0DF91CF910C94680D0F9313
:100A40001F93CF93DF930E94D903C82F0E94D9032D
:100A5000082F0E94D903182F0E94D903803259F021
:100A600080914802909149020196909349028093A7
:100A7000480265E118C0D0E0DC2FCC27C00FD11DA3
:100A800064E183E592E00E94680D163421F4CE0102
:100A90000E947C0307C0153421F4CE010E94B003EC
:100AA00001C081E1682F83E592E0DF91CF911F9132
:100AB0000F910C94680D0E94D903803259F08091F7
:100AC000480290914902019690934902809348020E
:100AD00065E127C064E183E592E00E94680D20E0B3
:100AE00040E060E080E30E941102682F83E592E01D
:100AF0000E94680D20E041E060E080E30E94110266
:100B0000682F83E592E00E94680D20E042E060E0FB
:100B100080E30E941102682F83E592E00E94680D35
:100B200060E183E592E00C94680D0E94D903813561
:100B300009F484C038F5813409F468C098F480332E
:100B400009F44DC0813309F44FC0803209F082C0EE
:100B500080914802909149020196909349028093B6
:100B6000480287C0853409F456C0803509F458C05E
:100B7000823409F06FC084E190E00E94E4030E9497
:100B8000310262C0813609F450C000F5863509F49F
:100B900052C0803609F447C0853509F05BC00E9419
:100BA000D90390E090934502809344020E94D903B8
:100BB00090E0982F88272091440230914502280F19
:100BC000391F30934502209344023EC0843781F19F
:100BD0008537E9F18436F1F50E94E7040895109213
:100BE00049021092480230C00E94D903803209F0B5
:100BF00045C064E183E592E00E94680D6CE071E01D
:100C000083E592E00E94660D60E134C00E94D90342
:100C10000E94A004089585E090E00E94E40314C0BF
:100C20000E948D0211C00E94D9030E94D9030CC0FA
:100C30000E941F0508950E94B4040895109249026D
:100C4000109248020E94C4020E94660408950E9405
:100C50005B05089580914802909149020196909316
:100C60004902809348020E94D903803211F462E164
:100C700001C065E183E592E00C94680D08958091D0
:100C8000460290914702892B11F061E001C060E0BB
:100C900087E00E94C3078091480290914902892B06
:100CA00011F061E001C060E088E00E94C3070E948B
:100CB000A00183E592E00E94BA08892B11F00C9400
:100CC000950508951F920F920FB60F9211242F933E
:100CD0003F938F939F93AF93BF9380914B029091DB
:100CE0004C02A0914D02B0914E0230914A0223E095
:100CF000230F2D3720F40196A11DB11D05C026E854
:100D0000230F0296A11DB11D20934A0280934B022E
:100D100090934C02A0934D02B0934E0280914F02EB
:100D200090915002A0915102B09152020196A11DE2
:100D3000B11D80934F0290935002A0935102B09343
:100D40005202BF91AF919F918F913F912F910F9040
:100D50000FBE0F901F9018953FB7F89480914F02E7
:100D600090915002A0915102B091520226B5A89BD9
:100D700005C02F3F19F00196A11DB11D3FBF662789
:100D8000782F892F9A2F620F711D811D911D42E0CE
:100D9000660F771F881F991F4A95D1F70895CF9244
:100DA000DF92EF92FF92CF93DF936B017C010E9461
:100DB000AC06EB01C114D104E104F10489F00E94F6
:100DC0006F0D0E94AC066C1B7D0B683E734090F368
:100DD00081E0C81AD108E108F108C851DC4FEACF18
:100DE000DF91CF91FF90EF90DF90CF9008957894AE
:100DF00084B5826084BD84B5816084BD85B5826020
:100E000085BD85B5816085BDEEE6F0E080818160BD
:100E10008083E1E8F0E010828081826080838081BD
:100E200081608083E0E8F0E0808181608083E1E997
:100E3000F0E0808182608083808181608083E0E94E
:100E4000F0E0808181608083E1ECF0E0808184606B
:100E50008083808182608083808181608083E3ECF5
:100E6000F0E0808181608083E0ECF0E0808182604E
:100E70008083E2ECF0E0808181608083EAE7F0E04B
:100E800080818460808380818260808380818160B2
:100E90008083808180688083089590E0FC01319791
:100EA000EF30F105B0F5EA5AFF4F0C94B30E809184
:100EB00080008F7703C0809180008F7D80938000B9
:100EC000089580918000877FF9CF84B58F7702C025
:100ED00084B58F7D84BD0895809190008F7707C081
:100EE000809190008F7D03C080919000877F8093D8
:100EF000900008958091C0008F7703C08091C0005A
:100F00008F7D8093C00008958091C200877F809379
:100F1000C2000895CF93DF9390E0FC01EA5FFE4F9B
:100F20002491FC01EC5DFE4F8491882349F190E00F
:100F3000880F991FFC01E05BFE4FA591B4918E5B79
:100F40009E4FFC01C591D4919FB7611108C0F894E0
:100F50008C91209582238C93888182230AC06230F1
:100F600051F4F8948C91322F309583238C9388819F
:100F7000822B888304C0F8948C91822B8C939FBF22
:100F8000DF91CF9108950F931F93CF93DF931F921B
:100F9000CDB7DEB7282F30E0F901E851FF4F84913B
:100FA000F901EA5FFE4F1491F901EC5DFE4F0491E7
:100FB0000023C9F0882321F069830E944D076981CD
:100FC000E02FF0E0EE0FFF1FEE5BFE4FA591B49116
:100FD0009FB7F8948C91611103C01095812301C0D3
:100FE000812B8C939FBF0F90DF91CF911F910F9119
:100FF00008951F93CF93DF93182FEB0161E00E94B8
:101000008A07209711F460E004C0CF3FD10539F47E
:1010100061E0812FDF91CF911F910C94C307E12FE5
:10102000F0E0E851FF4F449150E0FA013197EF3082
:10103000F10508F06CC0EB59FF4F0C94B30E84B56A
:10104000806884BDC7BD68C084B5806284BDC8BDEA
:1010500063C080918000806880938000D093890075
:10106000C093880059C08091800080628093800086
:10107000D0938B00C0938A004FC08091800088601D
:1010800080938000D0938D00C0938C0045C08091E8
:101090009000806880939000D0939900C09398004E
:1010A0003BC080919000806280939000D0939B0021
:1010B000C0939A0031C08091900088608093900026
:1010C000D0939D00C0939C0027C08091C000806891
:1010D0008093C0008091C0008F7B8093C000C0933C
:1010E000CF001AC08091C00080628093C000C0937E
:1010F000D00012C08091C20088608093C2008091AD
:10110000C2008B7F8093C200C093D20005C0C0385C
:10111000D1050CF07DCF77CFDF91CF911F9108954E
:10112000CF93DF931F92CDB7DEB76983DC01ED91DA
:10113000FC910280F381E02D41E050E0BE016F5F41
:101140007F4F09950F90DF91CF910895CF93DF9353
:10115000EC018C859D8597FF05C082E00E94550AB1
:101160009D878C878C859D85DF91CF91089583E045
:101170000C94AA0CFC018485958597FD06C082E03D
:101180000E94FD0990E00196089582E00E94FD0909
:1011900090E00895FC018485958597FD05C02FEFAB
:1011A0003FEF35872487089582E00C94550ACF934A
:1011B000DF93EC0180910901882331F083E00E94E4
:1011C000860A1816190634F081E090E09B838A8322
:1011D00080E090E0DF91CF910895FC0120812E5FA7
:1011E000208342E450E06EE571E080E80C94210B2E
:1011F000FC0181819081913A59F4813209F03CC01F
:1012000047E050E062E071E080E00E94210B43C0C3
:10121000913291F5803239F467E070E082E091E03C
:101220000E94520B06C0823209F035C08281809341
:1012300009018091020190910301A0910401B091F4
:101240000501803B9440A105B105C1F480910901DD
:1012500080FD14C087E797E790930108809300080A
:101260002BE088E190E00FB6F894A8958093600099
:101270000FBE209360000FC080E0089588E10FB694
:10128000F89480936000109260000FBEA8951092B1
:1012900001081092000881E008952FEF3FEFFC0154
:1012A000358724870895109256021092550288EED1
:1012B00093E0A0E0B0E08093570290935802A0938F
:1012C0005902B0935A0288E191E0909354028093BE
:1012D00053028FEF9FEF9093600280935F02089517
:1012E00008950E94F7060E94700983EA92E00E9426
:1012F0000A0D0E94D901C0E0D0E00E943F0620976D
:10130000E1F30E940000F9CF4091A7025091A8029A
:101310002091A5023091A60242175307B4F4909190
:10132000E8009570E1F39091E80092FD19C0809378
:10133000F1008091A7029091A80201968F739927DE
:10134000892B19F48EEF8093E8008091A702909189
:10135000A80201969093A8028093A70281E00895C5
:1013600080E00895CF92DF92FF920F931F93CF9367
:10137000DF931F92CDB7DEB7082F162F862F880F69
:101380008E5F99830E94840983E00E948409F02E75
:10139000C02E9981D92E8C2D8F19811778F4F601E2
:1013A00084910E948409082F80E00E948409802390
:1013B000FFEFCF1ADF0A8111EECF01C081E00F905D
:1013C000DF91CF911F910F91FF90DF90CF90089503
:1013D000615030F02091F100FC0120830196F8CF9C
:1013E000289884E68093AA0208952FB7FC012083F1
:1013F000F89467706093E9000895CF93DF931F928C
:10140000CDB7DEB7682FCE0101960E94F509809115
:10141000F20099819FBF0F90DF91CF910895FF92C5
:101420000F931F93CF93DF9300D0CDB7DEB7F62E87
:101430008A019091A902992311F057FF03C08FEF01
:101440009FEF2BC0682FCE0101967A830E94F50989
:101450008091F20090E0A8017A81801791070CF446
:10146000AC01EF2DF72FF40E84E6FE1639F0289824
:101470008093AA029091F1009193F7CF4115510505
:1014800021F08091F200882321F089818FBFCA0169
:1014900004C08BE68093E800F8CF0F900F90DF91A7
:1014A000CF911F910F91FF900895CF93DF931F92DB
:1014B000CDB7DEB741E050E0BE016F5F7F4F0E94C5
:1014C0000F0A019719F4898190E002C08FEF9FEF16
:1014D0000F90DF91CF910895CF93DF931F92CDB7F7
:1014E000DEB7682FCE0101960E94F5099091E800C1
:1014F000892F807295FF04C09091F20080E4891BCF
:1015000099819FBF0F90DF91CF9108956F927F9245
:101510008F929F92AF92BF92CF92DF92EF92FF9203
:101520000F931F93CF93DF931F92CDB7DEB7782E23
:101530007B01C42EB52E8091A902882369F0042F67
:10154000152F8AEFD82E872D8072982E9AE3A92E18
:10155000872D8074882E11C08FEF9FEF57C0872D85
:101560000E946C0A682E81110CC0DA94A9F361E024
:1015700070E080E090E00E94CF060115110579F738
:101580003BC0282F30E0021713070CF4602E672DA4
:10159000CE0101960E94F5098091E80085FF29C0DF
:1015A000262D30E0021B130B992039F06A948FEF3F
:1015B0006816B1F01092F100F9CFF701862D77FE91
:1015C00007C0815058F094919093F1003196F9CF73
:1015D000815020F091919093F100FACFE20EF31E2A
:1015E0008091E80085FF0FC00115110511F48110ED
:1015F0000AC089818FBFC1CF5D9884E68093AB021A
:101600008C2D9B2D03C0A092E800F3CF0F90DF91AB
:10161000CF911F910F91FF90EF90DF90CF90BF90EF
:10162000AF909F908F907F906F9008951092E900F7
:101630001092A8021092A7029093A6028093A5028E
:101640000895CF92DF92FF920F931F93CF93DF9372
:1016500000D0CDB7DEB7F82E8A016B010115110558
:10166000B1F0F601F7FE02C0849101C08081498388
:101670005A830E94840901501109FFEFCF1ADF0A33
:1016800049815A818111EACF8FEF9FEF01C0CA01D2
:101690000F900F90DF91CF911F910F91FF90DF90EE
:1016A000CF9008951F93CF93DF931F92CDB7DEB7EE
:1016B000162F2091E80022FFFCCF612F79830E9432
:1016C000E8098BEF8093E800812F7981972F0F90A5
:1016D000DF91CF911F910895CF93DF931F92CDB7E4
:1016E000DEB71982CE0101960E94ED08CE01019667
:1016F0000E948E0D898190E00F90DF91CF91089527
:101700001F920F920FB60F921124EF92FF920F9338
:101710001F932F933F934F935F936F937F938F9379
:101720009F93AF93BF93EF93FF93CF93DF93CDB787
:10173000DEB76297DEBFCDBF1092E9008091E8006E
:1017400083FFEBC068E0CE010A960E94E80982EFB1
:101750008093E8009A8597FF05C08091E80080FF9C
:10176000FCCF03C08EEF8093E800892F807609F0CC
:10177000B9C08B85811105C01092F1001092F10063
:10178000C5C0282F2D7F213009F4C0C0853049F411
:101790008091E80080FFFCCF8C8580688093E30017
:1017A000B5C0863009F076C02D85E888F9882230EA
:1017B00071F580E090E02A8B0E94160B0E946C0B62
:1017C00099E08E010F5F1F4FF801392F11923A9562
:1017D000E9F799832A892A8391E09E8390E8988784
:1017E0009AEF99872091A7023091A802275F3F4F77
:1017F0003C832B838D83C7010E94160B49E050E088
:10180000B80180E00E94210B0E946C0B7FC0C701D1
:101810002A8B0E94160B2A89223241F482E290E040
:101820000E94990D892B09F071C074C0213069F4B0
:1018300088899989089711F42093A4028091A402C1
:10184000811118C067EB71E01AC0233009F062C043
:101850008C85882391F0823021F460E185ED91E060
:1018600006C0813009F056C06BE089EC91E00E941F
:10187000B2094AC065EA71E002C066EE71E0611526
:10188000710509F447C0FB01449150E080E80E94D3
:10189000210B3CC0873009F43DC0883021F481E041
:1018A0008093F10033C0893089F5937099F5E1EAAE
:1018B000F1E081E021E096E38093E9002093EB00E2
:1018C00034913093EC009093ED008F5F319685302A
:1018D00099F78EE78093EA001092EA008C85809356
:1018E000A90214C0888999890E94160B8E858111DE
:1018F00005C0CE010A960E94F80806C0823051F455
:10190000CE010A960E94C10D882321F08EEF8093AC
:10191000E80003C081E28093EB0062960FB6F89472
:10192000DEBF0FBECDBFDF91CF91FF91EF91BF9191
:10193000AF919F918F917F916F915F914F913F9167
:101940002F911F910F91FF90EF900F900FBE0F906E
:101950001F9018958093E9008091F200882319F078
:101960008AE38093E80008951F920F920FB60F92BA
:1019700011242F933F934F935F936F937F938F9394
:101980009F93AF93BF93EF93FF938091E1001092E9
:10199000E10083FF0FC01092E90091E09093EB000B
:1019A0001092EC0092E39093ED001092A90298E05F
:1019B0009093F00082FF1DC083E00E94AA0C8091EA
:1019C000AB02882339F08091AB0281508093AB0247
:1019D000882369F08091AA02882359F08091AA0295
:1019E00081508093AA02811104C0289A02C05D9A96
:1019F000F1CFFF91EF91BF91AF919F918F917F9127
:101A00006F915F914F913F912F910F900FBE0F906B
:101A10001F9018951092A90281E08093D70080EA68
:101A20008093D80082E189BD09B400FEFDCF61E05A
:101A300070E080E090E00E94CF0680E98093D800BB
:101A40008CE08093E2001092E000559A209A08956D
:101A5000CF92DF92EF92FF920F931F93CF93DF937A
:101A60006C017A01EB01E60EF71E00E010E0CE15E6
:101A7000DF0561F06991D601ED91FC910190F08153
:101A8000E02DC6010995080F191FF1CFC801DF919C
:101A9000CF911F910F91FF90EF90DF90CF9008951D
:101AA0006115710581F0DB010D900020E9F7AD01B2
:101AB00041505109461B570BDC01ED91FC9102800E
:101AC000F381E02D099480E090E008950C94500D8E
:101AD000DC01ED91FC910190F081E02D09940895D5
:101AE000FF920F931F93CF93DF93EC01F62EE881C3
:101AF000F9810480F581E02D09958C01E881F98157
:101B00000680F781E02D6F2DCE010995C801992738
:101B1000DF91CF911F910F91FF900895FC012081DB
:101B20002F5F208349E150E06AE672E080E80C9480
:101B3000210B45E650E063E872E080E80C94210B4D
:101B4000EF92FF920F931F93CF93DF931F92CDB726
:101B5000DEB789838B017A0141E050E0BE016F5FFF
:101B60007F4F84E00E94860AA701B80184E40E94A6
:101B7000860A0F90DF91CF911F910F91FF90EF9008
:101B80000895FC0191818081813A31F481E09130A6
:101B900091F0933089F411C0813271F49B3021F4BB
:101BA000828180930B0105C09A3031F48281809349
:101BB0000A0181E00895089580E0089548E050E02A
:101BC00082E00C94A00DCF93DF93DC01683818F00D
:101BD000E8E7E60F25C0E62FF0E067FF11C0E05808
:101BE000F10981E090E001C0880FEA95EAF71496C8
:101BF0009C911497982B14969C931497E0E010C036
:101C0000E651FE4FE491EE2309F440C0E7FF08C01F
:101C100014968C911497826014968C931497EF7796
:101C200016968C9116978E1741F117968C911797EF
:101C30008E1719F118968C9118978E17F1F0199646
:101C40008C9119978E17C9F01A968C911A978E1746
:101C5000A1F01B968C911B978E1779F080E090E095
:101C6000ED01C80FD91F2E81211102C0EE8305C0DE
:101C7000019686309105A1F709C0BD016C5F7F4FC9
:101C8000CD010E94DE0D81E090E008C081E090E08F
:101C900013969C938E93129780E090E0DF91CF9102
:101CA0000895683818F0E8E7E60F25C0E62FF0E061
:101CB00067FF12C0E058F10921E030E001C0220FB7
:101CC000EA95EAF72095DC0114963C9114973223AB
:101CD00014963C93E0E00FC0E651FE4FE491EE23F2
:101CE00029F1E7FF08C0DC0114962C9114972D7F91
:101CF00014962C93EF7720E030E0EE2351F0DC01D6
:101D0000A20FB31F16964C9116974E1302C016964B
:101D10001C922F5F3F4F2630310579F7BC016C5F75
:101D20007F4F0E94DE0D81E090E0089580E090E01A
:101D30000895FC011682178210861186128613867A
:101D40001482BC016C5F7F4F0C94DE0D1092B802C0
:101D50001092AF021092AE0288E291E09093AD0231
:101D60008093AC020895EE0FFF1F0590F491E02DD3
:061D70000994F894FFCF76
:101D7600088000E1000000000000010141565220E9
:101D860049535000000000009008D708BA08CA0856
:101D9600A608B70800000000700D280DE30D510ECF
:021DA600990E94
:00000001FF
