:100000000C945D000C9485000C9485000C94850084
:100010000C9485000C9485000C9485000C9485004C
:100020000C9485000C9485000C9485000C9485003C
:100030000C9485000C9485000C9485000C9485002C
:100040000C944A050C9485000C9421070C945307DA
:100050000C9485000C9485000C9485000C9485000C
:100060000C9485000C94850000000008000201003B
:100070000003040700000000000000000102040863
:100080001020408001020408102001020408102002
:10009000040404040404040402020202020203032E
:1000A0000303030300000000250028002B000000CC
:1000B0000000240027002A00830711241FBECFEF71
:1000C000D8E0DEBFCDBF11E0A0E0B1E0EAEFF2E1A1
:1000D00002C005900D92AA31B107D9F722E0AAE13A
:1000E000B1E001C01D92A83DB207E1F710E0CAEBF4
:1000F000D0E004C02297FE010E947709C83BD107D7
:10010000C9F70E9412070C947B090C94000090918F
:10011000010180EE890F813A28F0809100018195DC
:100120008093000160910001690F6093010170E00C
:1001300089E00E94B20664E170E080E090E00C94F7
:10014000B7051F93CF93DF93182FEB0161E0812F49
:100150000E947C066EE170E080E090E00E94B705AE
:1001600060E0812F0E947C066EE170E080E090E00C
:100170000E94B705219750F7DF91CF911F91089505
:1001800026E040E05BE460E070E08BE392E00E94F8
:10019000A90861E087E00E94430662E070E087E022
:1001A00090E00E94A10061E088E00E94430662E0C6
:1001B00070E088E090E00E94A10061E089E00E9488
:1001C000430662E070E089E090E00C94A100682FA3
:1001D00087E00C947C0683E58CBD8DB58EB50895C3
:1001E0000DB407FEFDCF08958EBD0E94F0008EB5C0
:1001F0000895CF93DF9300D01F92CDB7DEB72B8346
:100200004A8369830E94F40069816EBD0E94F000F8
:100210008EB54A814EBD0E94F0008EB52B812EBD59
:100220000E94F0008EB50F900F900F90DF91CF914C
:10023000089580912C0180931A0180912D01809363
:100240001B0180912E0180931C0180912F018093CE
:100250001D018091300180931E01809131018093B6
:100260001F0180913201809320018091330180939E
:1002700021018091340190E0909323018093220129
:100280008091360190E0982F882720913701820FC6
:10029000911D90932501809324018091380190E075
:1002A000982F882720913901820F911D9093270163
:1002B0008093260180913A0190E0982F8827209121
:1002C0003B01820F911D9093290180932801809119
:1002D0003E0190E0982F882720913F01820F911DC9
:1002E00090932B0180932A0108950E94EB0061E016
:1002F0008AE00E94430661E08AE00E947C0661E099
:100300008DE00E94430660E08DE00E947C0662E37F
:1003100070E080E090E00E94B70560E08AE00E9413
:100320007C0662E370E080E090E00E94B70560E048
:100330008CE00E94430661E08BE00E94430620E0CF
:1003400040E063E58CEA0E94F90081E090E0909340
:100350002F0280932E02089560E08CE00E944306F5
:1003600060E08BE00E94430660E08DE00E9443065F
:1003700060E08AE00E94430610922F0210922E0243
:100380000895962F672F242F880F880F880F492FE5
:10039000805C0C94F900CF93DF9300D0CDB7DEB72B
:1003A000482F692F80E090E049836A830E94E7002C
:1003B00020E049816A818CE40E94F9006EE170E0DE
:1003C00080E090E00E94B70581E090E00F900F90F0
:1003D000DF91CF910C94E700209126013091270105
:1003E00080912C0290912D022032310511F4807FF2
:1003F00008952034310511F4807E089520383105A8
:1004000011F4807C08952115314009F48078089515
:10041000EF92FF920F931F93CF93DF937C01809114
:100420002C0290912D020E94EC018C01C0E0D0E0E2
:10043000CE15DF05ACF580912C0290912D020E9423
:10044000EC010817190751F0C8010E94CB018091F7
:100450002C0290912D020E94EC018C01FE01E45DC2
:10046000FE4F60912C0270912D02408180E00E942D
:10047000C1012296FE01E55DFE4F60912C02709154
:100480002D02408181E00E94C10120912C02309117
:100490002D022F5F3F4F30932D0220932C02C8CFA7
:1004A000C8010E94CB0180E1DF91CF911F910F9194
:1004B000FF90EF900895462F880F880F880F20E057
:1004C000672F805E0C94F9000F931F93CF93DF93F7
:1004D0008C01C0E0D0E0C017D10724F560912C0258
:1004E00070912D0280E00E945B02682F8BE392E006
:1004F0000E944B0960912C0270912D0281E00E94B4
:100500005B02682F8BE392E00E944B0920912C0242
:1005100030912D022F5F3F4F30932D0220932C02FC
:100520002296D9CF80E1DF91CF911F910F9108954D
:10053000EF92FF920F931F93CF93DF937C01009173
:100540002C0210912D02000F111FE801CE01801B1B
:10055000910B8E159F056CF42FEF4C2F6D2F80EAB9
:100560000E94F900682F8BE392E00E944B092196CC
:10057000EDCF80E1DF91CF911F910F91FF90EF9030
:1005800008958BE392E00E94C607892BD1F38BE399
:1005900092E00E94DF0708950F931F93CF93DF939C
:1005A0008C01CCE2D1E0CE018C52914080179107B2
:1005B00024F40E94C1028993F6CFDF91CF911F915D
:1005C0000F910895CF92DF92EF92FF920F931F93B6
:1005D000CF93DF936C017B01CB010E94CC0280E0C2
:1005E00090E00E94E7000CE211E0E601C8018C52A5
:1005F00091408E159F0584F4F80121918F014C2FB5
:100600006D2F80EC0E94F9006DE270E080E090E0D8
:100610000E94B7052196EACF81E090E00E94E700B2
:1006200080E1DF91CF911F910F91FF90EF90DF90CC
:10063000CF9008950F931F93CF93DF93EC01009118
:100640002C0210912D0280912801909129018C1784
:100650009D071CF0000F111F0BC08091300290917C
:1006600031020196909331028093300281E111C0F2
:10067000C132D1054CF060E270E0C8010E94E20294
:10068000005E1F4FA097F4CFBE01C8010E94E20296
:1006900080E1DF91CF911F910F9108950E94C102D7
:1006A000803239F464E18BE392E00E944B0960E10F
:1006B0000AC08091300290913102019690933102EC
:1006C0008093300265E18BE392E00C944B09CF9369
:1006D000C82F0E94C102803261F464E18BE392E092
:1006E0000E944B096C2F8BE392E00E944B0960E162
:1006F0000AC08091300290913102019690933102AC
:100700008093300265E18BE392E0CF910C944B092A
:10071000813859F020F4803861F482E00BC08238CF
:1007200031F0833931F483E505C081E003C082E113
:1007300001C080E00C94670384E090E00E94CC024A
:1007400020912F0140912E0160912D0180912C016B
:100750000E94F9000C946703CF93DF93EC010E9491
:10076000CC020E94C102803251F464E18BE392E03A
:100770000E944B09CE010E940802682F0AC0809196
:1007800030029091310201969093310280933002B1
:1007900065E18BE392E0DF91CF910C944B09CF930D
:1007A000DF930E94C102C82FD0E0DC2FCC270E942B
:1007B000C102C80FD11D0E94C102863429F4CE01A6
:1007C000DF91CF910C94AC038534D1F4CE010E941B
:1007D0001A03C82F0E94C102803239F464E18BE30E
:1007E00092E00E944B096C2F0CC0809130029091D6
:1007F00031020196909331028093300265E101C08D
:1008000061E18BE392E0DF91CF910C944B090F9360
:100810001F93CF93DF930E94C102C82F0E94C10291
:10082000082F0E94C102182F0E94C102803259F085
:100830008091300290913102019690933102809321
:10084000300265E118C0D0E0DC2FCC27C00FD11DED
:1008500064E18BE392E00E944B09163421F4CE014F
:100860000E94640207C0153421F4CE010E94980250
:1008700001C081E1682F8BE392E0DF91CF911F915E
:100880000F910C944B090E94C102803259F0809163
:1008900030029091310201969093310280933002A0
:1008A00065E127C064E18BE392E00E944B0920E000
:1008B00040E060E080E30E94F900682F8BE392E063
:1008C0000E944B0920E041E060E080E30E94F900D3
:1008D000682F8BE392E00E944B0920E042E060E049
:1008E00080E30E94F900682F8BE392E00E944B099D
:1008F00060E18BE392E00C944B090E94C1028135C8
:1009000009F484C038F5813409F468C098F4803360
:1009100009F44DC0813309F44FC0803209F082C020
:100920008091300290913102019690933102809330
:10093000300287C0853409F456C0803509F458C0A8
:10094000823409F06FC084E190E00E94CC020E94E2
:10095000190162C0813609F450C000F5863509F4EA
:1009600052C0803609F447C0853509F05BC00E944B
:10097000C10290E090932D0280932C020E94C1024C
:1009800090E0982F882720912C0230912D02280F7B
:10099000391F30932D0220932C023EC0843781F101
:1009A0008537E9F18436F1F50E94CF03089510925E
:1009B00031021092300230C00E94C102803209F030
:1009C00045C064E18BE392E00E944B0962E071E074
:1009D0008BE392E00E94490960E134C00E94C102A9
:1009E0000E948803089585E090E00E94CC0214C024
:1009F0000E94750111C00E94C1020E94C1020CC078
:100A00000E94070408950E949C03089510923102E9
:100A1000109230020E94AC010E944E0308950E9481
:100A20004304089580913002909131020196909391
:100A30003102809330020E94C102803211F462E1DF
:100A400001C065E18BE392E00C944B09089580911D
:100A50002E0290912F02892B11F061E001C060E01D
:100A600087E00E947C068091300290913102892BB0
:100A700011F061E001C060E088E00E947C060E9405
:100A800087008BE392E00E94C607892B11F00C943B
:100A90007D0408951F920F920FB60F9211242F9389
:100AA0003F938F939F93AF93BF9380913302909125
:100AB0003402A0913502B09136023091320223E027
:100AC000230F2D3720F40196A11DB11D05C026E886
:100AD000230F0296A11DB11D209332028093330291
:100AE00090933402A0933502B0933602809137027E
:100AF00090913802A0913902B0913A020196A11D5D
:100B0000B11D8093370290933802A0933902B093BD
:100B10003A02BF91AF919F918F913F912F910F908A
:100B20000FBE0F901F9018953FB7F8948091370231
:100B300090913802A0913902B0913A0226B5A89B53
:100B400005C02F3F19F00196A11DB11D3FBF6627BB
:100B5000782F892F9A2F620F711D811D911D42E000
:100B6000660F771F881F991F4A95D1F70895CF9276
:100B7000DF92EF92FF92CF93DF936B017C010E9493
:100B80009405EB01C114D104E104F10489F00E9441
:100B900052090E9494056C1B7D0B683E734090F3D4
:100BA00081E0C81AD108E108F108C851DC4FEACF4A
:100BB000DF91CF91FF90EF90DF90CF9008957894E0
:100BC00084B5826084BD84B5816084BD85B5826052
:100BD00085BD85B5816085BDEEE6F0E080818160F0
:100BE0008083E1E8F0E010828081826080838081F0
:100BF00081608083E0E8F0E0808181608083E1EBC8
:100C0000F0E0808184608083E0EBF0E080818160AF
:100C10008083EAE7F0E08081846080838081826065
:100C2000808380818160808380818068808310924E
:100C3000C1000895833081F028F4813099F082302A
:100C4000A1F008958730A9F08830B9F08430D1F44C
:100C5000809180008F7D03C0809180008F7780938A
:100C60008000089584B58F7702C084B58F7D84BDE0
:100C700008958091B0008F7703C08091B0008F7D80
:100C80008093B0000895CF93DF9390E0FC01E45887
:100C9000FF4F2491FC01E057FF4F8491882349F1D5
:100CA00090E0880F991FFC01E255FF4FA591B49188
:100CB0008C559F4FFC01C591D4919FB7611108C01D
:100CC000F8948C91209582238C93888182230AC08A
:100CD000623051F4F8948C91322F309583238C93A9
:100CE0008881822B888304C0F8948C91822B8C930A
:100CF0009FBFDF91CF9108950F931F93CF93DF9301
:100D00001F92CDB7DEB7282F30E0F901E859FF4F29
:100D10008491F901E458FF4F1491F901E057FF4F16
:100D200004910023C9F0882321F069830E941A06E8
:100D30006981E02FF0E0EE0FFF1FEC55FF4FA5910A
:100D4000B4919FB7F8948C91611103C010958123E1
:100D500001C0812B8C939FBF0F90DF91CF911F918A
:100D60000F9108951F93CF93DF93182FEB0161E04C
:100D70000E944306209711F460E004C0CF3FD105E4
:100D800039F461E0812FDF91CF911F910C947C06A3
:100D9000E12FF0E0E859FF4FE491E330F9F048F437
:100DA000E130B9F0E230A1F584B5806284BDC8BD00
:100DB00034C0E730E9F0E83019F1E43049F58091CA
:100DC0008000806280938000D0938B00C0938A0063
:100DD00024C084B5806884BDC7BD1FC080918000D9
:100DE000806880938000D0938900C093880015C0EC
:100DF0008091B00080688093B000C093B3000DC0B4
:100E00008091B00080628093B000C093B40005C0B0
:100E1000C038D1050CF0B5CFAFCFDF91CF911F9186
:100E2000089508950E94DF050E9411070E94C000E6
:100E3000C3EFD7E00E9427052097E1F30E94F30754
:100E4000F9CF1F920F920FB60F9211242F938F9309
:100E50009F93EF93FF93E0914B02F0914C028081BE
:100E6000E0915102F091520282FD12C09081809176
:100E700054028F5F8F7320915502821751F0E091D9
:100E80005402F0E0E55CFD4F958F8093540201C061
:100E90008081FF91EF919F918F912F910F900FBEC5
:100EA0000F901F9018951F920F920FB60F9211245A
:100EB0002F933F934F935F936F937F938F939F9362
:100EC000AF93BF93EF93FF938BE392E00E940108EF
:100ED000FF91EF91BF91AF919F918F917F916F9112
:100EE0005F914F913F912F910F900FBE0F901F90E8
:100EF00018958BE392E00E94C60721E0892B09F444
:100F000020E0822F089510923E0210923D0288EE5A
:100F100093E0A0E0B0E080933F0290934002A09362
:100F20004102B09342028EE091E090933C028093A4
:100F30003B0285EC90E0909348028093470284EC5A
:100F400090E090934A028093490280EC90E0909365
:100F50004C0280934B0281EC90E090934E02809380
:100F60004D0282EC90E09093500280934F0286EC09
:100F700090E090935202809351021092540210928A
:100F8000550210925602109257020895FC01818D6D
:100F9000228D90E0805C9F4F821B91098F7399276F
:100FA0000895FC01918D828D981731F0828DE80FA4
:100FB000F11D858D90E008958FEF9FEF0895FC015E
:100FC000918D828D981761F0828DDF01A80FB11D80
:100FD0005D968C91928D9F5F9F73928F90E00895A4
:100FE0008FEF9FEF089589E797E0892B49F080E024
:100FF00090E0892B29F00E94790781110C94000060
:101000000895FC01848DDF01A80FB11DA35ABF4FC5
:101010002C91848D90E001968F739927848FA689F7
:10102000B7892C93A089B1898C9180648C93938D1E
:10103000848D981306C00288F389E02D80818F7D0E
:1010400080830895CF93DF93EC01888D8823C9F0C6
:10105000EA89FB89808185FD05C0A889B9898C91C1
:1010600086FD0FC00FB607FCF5CF808185FFF2CF5C
:10107000A889B9898C9185FFEDCFCE010E94010826
:10108000E7CFDF91CF910895CF92DF92FF920F9338
:101090001F93CF93DF931F92CDB7DEB76C0181E032
:1010A000D60158968C9358975B969C915B975C966B
:1010B0008C915C97981307C05096ED91FC915197D5
:1010C000808185FD2EC0F601038D10E00F5F1F4F5C
:1010D0000F731127F02EF601848DF81211C00FB690
:1010E00007FCF9CFD6015096ED91FC915197808184
:1010F00085FFF1CFC60169830E9401086981EBCFAA
:10110000838DE80FF11DE35AFF4F6083D6015B9694
:101110000C935B975296ED91FC915397808180627E
:101120000CC0D6015696ED91FC915797608350966E
:10113000ED91FC91519780818064808381E090E003
:101140000F90DF91CF911F910F91FF90DF90CF9083
:101150000895BF92CF92DF92EF92FF92CF93DF93E9
:10116000EC016A017B01B22EE889F98982E0808373
:10117000411581EE580761057105A1F060E079E045
:101180008DE390E0A70196010E9453092150310997
:10119000410951095695479537952795211580E1C5
:1011A000380798F0E889F989108260E874E88EE1E0
:1011B00090E0A70196010E9453092150310941098D
:1011C00051095695479537952795EC85FD853083D0
:1011D000EE85FF852083188EEC89FD89B082EA892F
:1011E000FB89808180618083EA89FB8980818860B6
:1011F0008083EA89FB89808180688083EA89FB8912
:1012000080818F7D8083DF91CF91FF90EF90DF9081
:10121000CF90BF900895CF92DF92EF92FF920F93FD
:101220001F93CF93DF936C017A01EB01E60EF71E5B
:1012300000E010E0CE15DF0561F06991D601ED9177
:10124000FC910190F081E02DC6010995080F191F4E
:10125000F1CFC801DF91CF911F910F91FF90EF90D7
:10126000DF90CF9008956115710581F0DB010D903D
:101270000020E9F7AD0141505109461B570BDC0135
:10128000ED91FC910280F381E02D099480E090E0E3
:1012900008950C943309DC01ED91FC910190F081EB
:1012A000E02D09940895A1E21A2EAA1BBB1BFD0193
:1012B0000DC0AA1FBB1FEE1FFF1FA217B307E40735
:1012C000F50720F0A21BB30BE40BF50B661F771F8D
:1012D000881F991F1A9469F760957095809590956D
:1012E0009B01AC01BD01CF010895EE0FFF1F0590DA
:0A12F000F491E02D0994F894FFCF6B
:1012FA00088041565220495350000000000044081B
:0A130A000B09C607DF07D107220810
:00000001FF
